:020000020000FC
:02000000FFC03F
:10001C0000C04598000000000000459A15D123D17E
:04002C002AD1189528
:1002000008E00EBF0FEF0DBF0FEF04B900E005B916
:100210000FEF07B900E208B900E80AB900E00BB92E
:100220003EE150E04AE000E0602F00E00093B200C1
:1002300002E00093B0000EE40093B30007E00093E7
:10024000B10002E000937000789401E003BF0C94C9
:1002500027018895303019F03A950C94380140996F
:100260000C943601409A3EE10C94380140983EE1EE
:100270000895403019F04A950C9440015A9542E394
:100280000895152F1F70103019F40FE305B94BC0F6
:10029000113019F406E005B946C0123019F40BE527
:1002A00005B941C0133019F40FE405B93CC014304E
:1002B00019F406E605B937C0153019F40DE605B98D
:1002C00032C0163019F40DE705B92DC0173019F4F6
:1002D00007E005B928C0183019F40FE705B923C0A5
:1002E000193019F40FE605B91EC01A3019F407E7E2
:1002F00005B919C01B3019F40CE705B914C01C303E
:1003000019F409E305B90FC01D3019F40EE505B95C
:100310000AC01E3019F409E705B905C01F3019F4E9
:0803200001E705B900C00895D2
:00000001FF
