:020000020000FC
:02000000FFC03F
:10001C0000C04598000000000000459A13D11895C7
:1002000008E00EBF0FEF0DBF00E004B900E005B934
:100210000FE307B900E208B900E80AB900E208B93B
:100220003EE100E0402F00E00093B20002E00093C6
:10023000B0000EE40093B30007E00093B10002E0C9
:1002400000937000789401E003BF0C942501889519
:10025000303019F03A950C94360140990C943401E1
:0E026000409A3EE10C94360140983EE108952C
:00000001FF
