:020000020000FC
:02000000FFC03F
:10001C0000C04598000000000000459A15D123D17E
:02002C00189525
:1002000008E00EBF0FEF0DBF0FEF04B900E005B916
:100210000FEF07B900E208B900E80AB900E00BB92E
:100220003EE150E04AE000E0602F00E00093B200C1
:1002300002E00093B0000EE40093B30007E00093E7
:10024000B10002E000937000789401E003BF0C94C9
:1002500027018895303019F03A950C94380140996F
:100260000C943601409A3EE10C94380140983EE1EE
:100270000895403019F04A950C944101539555B9B1
:040280004AE00895B3
:00000001FF
